{
  "_format": "hh-sol-artifact-1",
  "contractName": "NFTMarketResell",
  "sourceName": "contracts/NFTMarketResell.sol",
  "abi": [
    {
      "inputs": [
        {
          "internalType": "contract ERC721Enumerable",
          "name": "_nft",
          "type": "address"
        }
      ],
      "stateMutability": "nonpayable",
      "type": "constructor"
    },
    {
      "anonymous": false,
      "inputs": [
        {
          "indexed": true,
          "internalType": "uint256",
          "name": "itemId",
          "type": "uint256"
        },
        {
          "indexed": true,
          "internalType": "uint256",
          "name": "tokenId",
          "type": "uint256"
        },
        {
          "indexed": false,
          "internalType": "address",
          "name": "seller",
          "type": "address"
        },
        {
          "indexed": false,
          "internalType": "address",
          "name": "owner",
          "type": "address"
        },
        {
          "indexed": false,
          "internalType": "uint256",
          "name": "price",
          "type": "uint256"
        },
        {
          "indexed": false,
          "internalType": "bool",
          "name": "sold",
          "type": "bool"
        }
      ],
      "name": "NFTListCreated",
      "type": "event"
    },
    {
      "inputs": [
        {
          "internalType": "uint256",
          "name": "itemId",
          "type": "uint256"
        }
      ],
      "name": "buyNft",
      "outputs": [],
      "stateMutability": "payable",
      "type": "function"
    },
    {
      "inputs": [],
      "name": "getListingFee",
      "outputs": [
        {
          "internalType": "uint256",
          "name": "",
          "type": "uint256"
        }
      ],
      "stateMutability": "view",
      "type": "function"
    },
    {
      "inputs": [
        {
          "internalType": "uint256",
          "name": "tokenId",
          "type": "uint256"
        },
        {
          "internalType": "uint256",
          "name": "price",
          "type": "uint256"
        }
      ],
      "name": "listSale",
      "outputs": [],
      "stateMutability": "payable",
      "type": "function"
    },
    {
      "inputs": [],
      "name": "nftListings",
      "outputs": [
        {
          "components": [
            {
              "internalType": "uint256",
              "name": "itemId",
              "type": "uint256"
            },
            {
              "internalType": "uint256",
              "name": "tokenId",
              "type": "uint256"
            },
            {
              "internalType": "address payable",
              "name": "seller",
              "type": "address"
            },
            {
              "internalType": "address payable",
              "name": "owner",
              "type": "address"
            },
            {
              "internalType": "uint256",
              "name": "price",
              "type": "uint256"
            },
            {
              "internalType": "bool",
              "name": "sold",
              "type": "bool"
            }
          ],
          "internalType": "struct NFTMarketResell.List[]",
          "name": "",
          "type": "tuple[]"
        }
      ],
      "stateMutability": "view",
      "type": "function"
    },
    {
      "inputs": [
        {
          "internalType": "address",
          "name": "",
          "type": "address"
        },
        {
          "internalType": "address",
          "name": "from",
          "type": "address"
        },
        {
          "internalType": "uint256",
          "name": "",
          "type": "uint256"
        },
        {
          "internalType": "bytes",
          "name": "",
          "type": "bytes"
        }
      ],
      "name": "onERC721Received",
      "outputs": [
        {
          "internalType": "bytes4",
          "name": "",
          "type": "bytes4"
        }
      ],
      "stateMutability": "pure",
      "type": "function"
    },
    {
      "inputs": [
        {
          "internalType": "uint256",
          "name": "",
          "type": "uint256"
        }
      ],
      "name": "vaultItems",
      "outputs": [
        {
          "internalType": "uint256",
          "name": "itemId",
          "type": "uint256"
        },
        {
          "internalType": "uint256",
          "name": "tokenId",
          "type": "uint256"
        },
        {
          "internalType": "address payable",
          "name": "seller",
          "type": "address"
        },
        {
          "internalType": "address payable",
          "name": "owner",
          "type": "address"
        },
        {
          "internalType": "uint256",
          "name": "price",
          "type": "uint256"
        },
        {
          "internalType": "bool",
          "name": "sold",
          "type": "bool"
        }
      ],
      "stateMutability": "view",
      "type": "function"
    }
  ],
  "bytecode": "0x60806040526611c37937e080006004553480156200001c57600080fd5b506040516200190a3803806200190a833981810160405281019062000042919062000151565b600160008190555033600360006101000a81548173ffffffffffffffffffffffffffffffffffffffff021916908373ffffffffffffffffffffffffffffffffffffffff16021790555080600660006101000a81548173ffffffffffffffffffffffffffffffffffffffff021916908373ffffffffffffffffffffffffffffffffffffffff1602179055505062000183565b600080fd5b600073ffffffffffffffffffffffffffffffffffffffff82169050919050565b60006200010582620000d8565b9050919050565b60006200011982620000f8565b9050919050565b6200012b816200010c565b81146200013757600080fd5b50565b6000815190506200014b8162000120565b92915050565b6000602082840312156200016a5762000169620000d3565b5b60006200017a848285016200013a565b91505092915050565b61177780620001936000396000f3fe6080604052600436106100555760003560e01c8063150b7a021461005a5780631dfb091b14610097578063243adbdd146100d95780635993b2fc146100f557806365699c9d14610120578063b8fe6abe1461013c575b600080fd5b34801561006657600080fd5b50610081600480360381019061007c9190610e35565b610167565b60405161008e9190610ef8565b60405180910390f35b3480156100a357600080fd5b506100be60048036038101906100b99190610f13565b6101ea565b6040516100d096959493929190610f8b565b60405180910390f35b6100f360048036038101906100ee9190610f13565b610273565b005b34801561010157600080fd5b5061010a6105b0565b6040516101179190611143565b60405180910390f35b61013a60048036038101906101359190611165565b610822565b005b34801561014857600080fd5b50610151610c47565b60405161015e91906111a5565b60405180910390f35b60008073ffffffffffffffffffffffffffffffffffffffff168573ffffffffffffffffffffffffffffffffffffffff16146101d7576040517f08c379a00000000000000000000000000000000000000000000000000000000081526004016101ce90611243565b60405180910390fd5b63150b7a0260e01b905095945050505050565b60056020528060005260406000206000915090508060000154908060010154908060020160009054906101000a900473ffffffffffffffffffffffffffffffffffffffff16908060030160009054906101000a900473ffffffffffffffffffffffffffffffffffffffff16908060040154908060050160009054906101000a900460ff16905086565b61027b610c51565b6000600560008381526020019081526020016000206004015490506000600560008481526020019081526020016000206001015490508134146102f3576040517f08c379a00000000000000000000000000000000000000000000000000000000081526004016102ea906112d5565b60405180910390fd5b6005600084815260200190815260200160002060020160009054906101000a900473ffffffffffffffffffffffffffffffffffffffff1673ffffffffffffffffffffffffffffffffffffffff166108fc349081150290604051600060405180830381858888f1935050505015801561036f573d6000803e3d6000fd5b503373ffffffffffffffffffffffffffffffffffffffff166108fc6004549081150290604051600060405180830381858888f193505050501580156103b8573d6000803e3d6000fd5b50600660009054906101000a900473ffffffffffffffffffffffffffffffffffffffff1673ffffffffffffffffffffffffffffffffffffffff166323b872dd3033846040518463ffffffff1660e01b815260040161041893929190611304565b600060405180830381600087803b15801561043257600080fd5b505af1158015610446573d6000803e3d6000fd5b5050505060016005600085815260200190815260200160002060050160006101000a81548160ff0219169083151502179055506104836002610ca0565b6005600082815260200190815260200160002060008082016000905560018201600090556002820160006101000a81549073ffffffffffffffffffffffffffffffffffffffff02191690556003820160006101000a81549073ffffffffffffffffffffffffffffffffffffffff021916905560048201600090556005820160006101000a81549060ff021916905550506005600084815260200190815260200160002060008082016000905560018201600090556002820160006101000a81549073ffffffffffffffffffffffffffffffffffffffff02191690556003820160006101000a81549073ffffffffffffffffffffffffffffffffffffffff021916905560048201600090556005820160006101000a81549060ff0219169055505050506105ad610cb6565b50565b606060006105be6001610cc0565b905060006105cc6002610cc0565b6105d66001610cc0565b6105e0919061136a565b90506000808267ffffffffffffffff8111156105ff576105fe61139e565b5b60405190808252806020026020018201604052801561063857816020015b610625610cce565b81526020019060019003908161061d5790505b50905060005b84811015610817573073ffffffffffffffffffffffffffffffffffffffff166005600060018461066e91906113cd565b815260200190815260200160002060030160009054906101000a900473ffffffffffffffffffffffffffffffffffffffff1673ffffffffffffffffffffffffffffffffffffffff16036108045760006001826106ca91906113cd565b90506000600560008381526020019081526020016000209050806040518060c001604052908160008201548152602001600182015481526020016002820160009054906101000a900473ffffffffffffffffffffffffffffffffffffffff1673ffffffffffffffffffffffffffffffffffffffff1673ffffffffffffffffffffffffffffffffffffffff1681526020016003820160009054906101000a900473ffffffffffffffffffffffffffffffffffffffff1673ffffffffffffffffffffffffffffffffffffffff1673ffffffffffffffffffffffffffffffffffffffff168152602001600482015481526020016005820160009054906101000a900460ff1615151515815250508486815181106107e7576107e6611401565b5b60200260200101819052506001856107ff91906113cd565b945050505b808061080f90611430565b91505061063e565b508094505050505090565b61082a610c51565b3373ffffffffffffffffffffffffffffffffffffffff16600660009054906101000a900473ffffffffffffffffffffffffffffffffffffffff1673ffffffffffffffffffffffffffffffffffffffff16636352211e846040518263ffffffff1660e01b815260040161089c91906111a5565b602060405180830381865afa1580156108b9573d6000803e3d6000fd5b505050506040513d601f19601f820116820180604052508101906108dd919061148d565b73ffffffffffffffffffffffffffffffffffffffff1614610933576040517f08c379a000000000000000000000000000000000000000000000000000000000815260040161092a90611506565b60405180910390fd5b600060056000848152602001908152602001600020600101541461098c576040517f08c379a000000000000000000000000000000000000000000000000000000000815260040161098390611572565b60405180910390fd5b600081116109cf576040517f08c379a00000000000000000000000000000000000000000000000000000000081526004016109c6906115de565b60405180910390fd5b6004543414610a13576040517f08c379a0000000000000000000000000000000000000000000000000000000008152600401610a0a90611670565b60405180910390fd5b610a1d6001610ca0565b6000610a296001610cc0565b90506040518060c001604052808281526020018481526020013373ffffffffffffffffffffffffffffffffffffffff1681526020013073ffffffffffffffffffffffffffffffffffffffff1681526020018381526020016000151581525060056000838152602001908152602001600020600082015181600001556020820151816001015560408201518160020160006101000a81548173ffffffffffffffffffffffffffffffffffffffff021916908373ffffffffffffffffffffffffffffffffffffffff16021790555060608201518160030160006101000a81548173ffffffffffffffffffffffffffffffffffffffff021916908373ffffffffffffffffffffffffffffffffffffffff1602179055506080820151816004015560a08201518160050160006101000a81548160ff021916908315150217905550905050600660009054906101000a900473ffffffffffffffffffffffffffffffffffffffff1673ffffffffffffffffffffffffffffffffffffffff166323b872dd3330866040518463ffffffff1660e01b8152600401610bc893929190611304565b600060405180830381600087803b158015610be257600080fd5b505af1158015610bf6573d6000803e3d6000fd5b5050505082817ff706d41aafb3bd082c41d3a4b05c5fdd5e426613e8e1e23e7cf222ac5ced132e3330866000604051610c329493929190611690565b60405180910390a350610c43610cb6565b5050565b6000600454905090565b600260005403610c96576040517f08c379a0000000000000000000000000000000000000000000000000000000008152600401610c8d90611721565b60405180910390fd5b6002600081905550565b6001816000016000828254019250508190555050565b6001600081905550565b600081600001549050919050565b6040518060c001604052806000815260200160008152602001600073ffffffffffffffffffffffffffffffffffffffff168152602001600073ffffffffffffffffffffffffffffffffffffffff168152602001600081526020016000151581525090565b600080fd5b600080fd5b600073ffffffffffffffffffffffffffffffffffffffff82169050919050565b6000610d6782610d3c565b9050919050565b610d7781610d5c565b8114610d8257600080fd5b50565b600081359050610d9481610d6e565b92915050565b6000819050919050565b610dad81610d9a565b8114610db857600080fd5b50565b600081359050610dca81610da4565b92915050565b600080fd5b600080fd5b600080fd5b60008083601f840112610df557610df4610dd0565b5b8235905067ffffffffffffffff811115610e1257610e11610dd5565b5b602083019150836001820283011115610e2e57610e2d610dda565b5b9250929050565b600080600080600060808688031215610e5157610e50610d32565b5b6000610e5f88828901610d85565b9550506020610e7088828901610d85565b9450506040610e8188828901610dbb565b935050606086013567ffffffffffffffff811115610ea257610ea1610d37565b5b610eae88828901610ddf565b92509250509295509295909350565b60007fffffffff0000000000000000000000000000000000000000000000000000000082169050919050565b610ef281610ebd565b82525050565b6000602082019050610f0d6000830184610ee9565b92915050565b600060208284031215610f2957610f28610d32565b5b6000610f3784828501610dbb565b91505092915050565b610f4981610d9a565b82525050565b6000610f5a82610d3c565b9050919050565b610f6a81610f4f565b82525050565b60008115159050919050565b610f8581610f70565b82525050565b600060c082019050610fa06000830189610f40565b610fad6020830188610f40565b610fba6040830187610f61565b610fc76060830186610f61565b610fd46080830185610f40565b610fe160a0830184610f7c565b979650505050505050565b600081519050919050565b600082825260208201905092915050565b6000819050602082019050919050565b61102181610d9a565b82525050565b61103081610f4f565b82525050565b61103f81610f70565b82525050565b60c08201600082015161105b6000850182611018565b50602082015161106e6020850182611018565b5060408201516110816040850182611027565b5060608201516110946060850182611027565b5060808201516110a76080850182611018565b5060a08201516110ba60a0850182611036565b50505050565b60006110cc8383611045565b60c08301905092915050565b6000602082019050919050565b60006110f082610fec565b6110fa8185610ff7565b935061110583611008565b8060005b8381101561113657815161111d88826110c0565b9750611128836110d8565b925050600181019050611109565b5085935050505092915050565b6000602082019050818103600083015261115d81846110e5565b905092915050565b6000806040838503121561117c5761117b610d32565b5b600061118a85828601610dbb565b925050602061119b85828601610dbb565b9150509250929050565b60006020820190506111ba6000830184610f40565b92915050565b600082825260208201905092915050565b7f63616e6e6f742073656e64206e66747320746f2056616c75742064697265637460008201527f6c79200000000000000000000000000000000000000000000000000000000000602082015250565b600061122d6023836111c0565b9150611238826111d1565b604082019050919050565b6000602082019050818103600083015261125c81611220565b9050919050565b7f5472616e7366657220546f74616c20416d6f756e7420746f20636f6d706c657460008201527f65207472616e73616374696f6e00000000000000000000000000000000000000602082015250565b60006112bf602d836111c0565b91506112ca82611263565b604082019050919050565b600060208201905081810360008301526112ee816112b2565b9050919050565b6112fe81610d5c565b82525050565b600060608201905061131960008301866112f5565b61132660208301856112f5565b6113336040830184610f40565b949350505050565b7f4e487b7100000000000000000000000000000000000000000000000000000000600052601160045260246000fd5b600061137582610d9a565b915061138083610d9a565b92508282039050818111156113985761139761133b565b5b92915050565b7f4e487b7100000000000000000000000000000000000000000000000000000000600052604160045260246000fd5b60006113d882610d9a565b91506113e383610d9a565b92508282019050808211156113fb576113fa61133b565b5b92915050565b7f4e487b7100000000000000000000000000000000000000000000000000000000600052603260045260246000fd5b600061143b82610d9a565b91507fffffffffffffffffffffffffffffffffffffffffffffffffffffffffffffffff820361146d5761146c61133b565b5b600182019050919050565b60008151905061148781610d6e565b92915050565b6000602082840312156114a3576114a2610d32565b5b60006114b184828501611478565b91505092915050565b7f4e4654206e6f7420796f75727300000000000000000000000000000000000000600082015250565b60006114f0600d836111c0565b91506114fb826114ba565b602082019050919050565b6000602082019050818103600083015261151f816114e3565b9050919050565b7f616c7265616479206c6973746564000000000000000000000000000000000000600082015250565b600061155c600e836111c0565b915061156782611526565b602082019050919050565b6000602082019050818103600083015261158b8161154f565b9050919050565b7f416d6f756e74206d75737420626520686967686572207468616e203000000000600082015250565b60006115c8601c836111c0565b91506115d382611592565b602082019050919050565b600060208201905081810360008301526115f7816115bb565b9050919050565b7f506c65617365207472616e7366657220302e303031352063727970746f20746f60008201527f20706179206c697374696e672066656500000000000000000000000000000000602082015250565b600061165a6030836111c0565b9150611665826115fe565b604082019050919050565b600060208201905081810360008301526116898161164d565b9050919050565b60006080820190506116a560008301876112f5565b6116b260208301866112f5565b6116bf6040830185610f40565b6116cc6060830184610f7c565b95945050505050565b7f5265656e7472616e637947756172643a207265656e7472616e742063616c6c00600082015250565b600061170b601f836111c0565b9150611716826116d5565b602082019050919050565b6000602082019050818103600083015261173a816116fe565b905091905056fea2646970667358221220acb4d8b3fc61e8736381cd5980f0e12fa396cd87e83c91d3759b7af299dcf92464736f6c63430008120033",
  "linkReferences": {},
  "deployedLinkReferences": {}
}