{
  "_format": "hh-sol-artifact-1",
  "contractName": "CreateCustomNFT",
  "sourceName": "contracts/CreateCustomNFT.sol",
  "abi": [
    {
      "inputs": [
        {
          "internalType": "address",
          "name": "marketContract",
          "type": "address"
        }
      ],
      "stateMutability": "nonpayable",
      "type": "constructor"
    },
    {
      "anonymous": false,
      "inputs": [
        {
          "indexed": true,
          "internalType": "address",
          "name": "owner",
          "type": "address"
        },
        {
          "indexed": true,
          "internalType": "address",
          "name": "approved",
          "type": "address"
        },
        {
          "indexed": true,
          "internalType": "uint256",
          "name": "tokenId",
          "type": "uint256"
        }
      ],
      "name": "Approval",
      "type": "event"
    },
    {
      "anonymous": false,
      "inputs": [
        {
          "indexed": true,
          "internalType": "address",
          "name": "owner",
          "type": "address"
        },
        {
          "indexed": true,
          "internalType": "address",
          "name": "operator",
          "type": "address"
        },
        {
          "indexed": false,
          "internalType": "bool",
          "name": "approved",
          "type": "bool"
        }
      ],
      "name": "ApprovalForAll",
      "type": "event"
    },
    {
      "anonymous": false,
      "inputs": [
        {
          "indexed": false,
          "internalType": "uint256",
          "name": "_fromTokenId",
          "type": "uint256"
        },
        {
          "indexed": false,
          "internalType": "uint256",
          "name": "_toTokenId",
          "type": "uint256"
        }
      ],
      "name": "BatchMetadataUpdate",
      "type": "event"
    },
    {
      "anonymous": false,
      "inputs": [
        {
          "indexed": false,
          "internalType": "uint256",
          "name": "_tokenId",
          "type": "uint256"
        }
      ],
      "name": "MetadataUpdate",
      "type": "event"
    },
    {
      "anonymous": false,
      "inputs": [
        {
          "indexed": true,
          "internalType": "address",
          "name": "previousOwner",
          "type": "address"
        },
        {
          "indexed": true,
          "internalType": "address",
          "name": "newOwner",
          "type": "address"
        }
      ],
      "name": "OwnershipTransferred",
      "type": "event"
    },
    {
      "anonymous": false,
      "inputs": [
        {
          "indexed": true,
          "internalType": "address",
          "name": "from",
          "type": "address"
        },
        {
          "indexed": true,
          "internalType": "address",
          "name": "to",
          "type": "address"
        },
        {
          "indexed": true,
          "internalType": "uint256",
          "name": "tokenId",
          "type": "uint256"
        }
      ],
      "name": "Transfer",
      "type": "event"
    },
    {
      "inputs": [],
      "name": "_tokenIds",
      "outputs": [
        {
          "internalType": "uint256",
          "name": "_value",
          "type": "uint256"
        }
      ],
      "stateMutability": "view",
      "type": "function"
    },
    {
      "inputs": [
        {
          "internalType": "address",
          "name": "to",
          "type": "address"
        },
        {
          "internalType": "uint256",
          "name": "tokenId",
          "type": "uint256"
        }
      ],
      "name": "approve",
      "outputs": [],
      "stateMutability": "nonpayable",
      "type": "function"
    },
    {
      "inputs": [
        {
          "internalType": "address",
          "name": "owner",
          "type": "address"
        }
      ],
      "name": "balanceOf",
      "outputs": [
        {
          "internalType": "uint256",
          "name": "",
          "type": "uint256"
        }
      ],
      "stateMutability": "view",
      "type": "function"
    },
    {
      "inputs": [],
      "name": "cost",
      "outputs": [
        {
          "internalType": "uint256",
          "name": "",
          "type": "uint256"
        }
      ],
      "stateMutability": "view",
      "type": "function"
    },
    {
      "inputs": [
        {
          "internalType": "string",
          "name": "tokenURI",
          "type": "string"
        }
      ],
      "name": "createNFT",
      "outputs": [
        {
          "internalType": "uint256",
          "name": "",
          "type": "uint256"
        }
      ],
      "stateMutability": "nonpayable",
      "type": "function"
    },
    {
      "inputs": [
        {
          "internalType": "uint256",
          "name": "tokenId",
          "type": "uint256"
        }
      ],
      "name": "getApproved",
      "outputs": [
        {
          "internalType": "address",
          "name": "",
          "type": "address"
        }
      ],
      "stateMutability": "view",
      "type": "function"
    },
    {
      "inputs": [
        {
          "internalType": "address",
          "name": "owner",
          "type": "address"
        },
        {
          "internalType": "address",
          "name": "operator",
          "type": "address"
        }
      ],
      "name": "isApprovedForAll",
      "outputs": [
        {
          "internalType": "bool",
          "name": "",
          "type": "bool"
        }
      ],
      "stateMutability": "view",
      "type": "function"
    },
    {
      "inputs": [
        {
          "internalType": "string",
          "name": "tokenURI",
          "type": "string"
        }
      ],
      "name": "mintNFT",
      "outputs": [
        {
          "internalType": "uint256",
          "name": "",
          "type": "uint256"
        }
      ],
      "stateMutability": "payable",
      "type": "function"
    },
    {
      "inputs": [],
      "name": "name",
      "outputs": [
        {
          "internalType": "string",
          "name": "",
          "type": "string"
        }
      ],
      "stateMutability": "view",
      "type": "function"
    },
    {
      "inputs": [],
      "name": "owner",
      "outputs": [
        {
          "internalType": "address",
          "name": "",
          "type": "address"
        }
      ],
      "stateMutability": "view",
      "type": "function"
    },
    {
      "inputs": [
        {
          "internalType": "uint256",
          "name": "tokenId",
          "type": "uint256"
        }
      ],
      "name": "ownerOf",
      "outputs": [
        {
          "internalType": "address",
          "name": "",
          "type": "address"
        }
      ],
      "stateMutability": "view",
      "type": "function"
    },
    {
      "inputs": [],
      "name": "renounceOwnership",
      "outputs": [],
      "stateMutability": "nonpayable",
      "type": "function"
    },
    {
      "inputs": [
        {
          "internalType": "address",
          "name": "from",
          "type": "address"
        },
        {
          "internalType": "address",
          "name": "to",
          "type": "address"
        },
        {
          "internalType": "uint256",
          "name": "tokenId",
          "type": "uint256"
        }
      ],
      "name": "safeTransferFrom",
      "outputs": [],
      "stateMutability": "nonpayable",
      "type": "function"
    },
    {
      "inputs": [
        {
          "internalType": "address",
          "name": "from",
          "type": "address"
        },
        {
          "internalType": "address",
          "name": "to",
          "type": "address"
        },
        {
          "internalType": "uint256",
          "name": "tokenId",
          "type": "uint256"
        },
        {
          "internalType": "bytes",
          "name": "data",
          "type": "bytes"
        }
      ],
      "name": "safeTransferFrom",
      "outputs": [],
      "stateMutability": "nonpayable",
      "type": "function"
    },
    {
      "inputs": [
        {
          "internalType": "address",
          "name": "operator",
          "type": "address"
        },
        {
          "internalType": "bool",
          "name": "approved",
          "type": "bool"
        }
      ],
      "name": "setApprovalForAll",
      "outputs": [],
      "stateMutability": "nonpayable",
      "type": "function"
    },
    {
      "inputs": [
        {
          "internalType": "bytes4",
          "name": "interfaceId",
          "type": "bytes4"
        }
      ],
      "name": "supportsInterface",
      "outputs": [
        {
          "internalType": "bool",
          "name": "",
          "type": "bool"
        }
      ],
      "stateMutability": "view",
      "type": "function"
    },
    {
      "inputs": [],
      "name": "symbol",
      "outputs": [
        {
          "internalType": "string",
          "name": "",
          "type": "string"
        }
      ],
      "stateMutability": "view",
      "type": "function"
    },
    {
      "inputs": [
        {
          "internalType": "uint256",
          "name": "tokenId",
          "type": "uint256"
        }
      ],
      "name": "tokenURI",
      "outputs": [
        {
          "internalType": "string",
          "name": "",
          "type": "string"
        }
      ],
      "stateMutability": "view",
      "type": "function"
    },
    {
      "inputs": [
        {
          "internalType": "address",
          "name": "from",
          "type": "address"
        },
        {
          "internalType": "address",
          "name": "to",
          "type": "address"
        },
        {
          "internalType": "uint256",
          "name": "tokenId",
          "type": "uint256"
        }
      ],
      "name": "transferFrom",
      "outputs": [],
      "stateMutability": "nonpayable",
      "type": "function"
    },
    {
      "inputs": [
        {
          "internalType": "address",
          "name": "newOwner",
          "type": "address"
        }
      ],
      "name": "transferOwnership",
      "outputs": [],
      "stateMutability": "nonpayable",
      "type": "function"
    },
    {
      "inputs": [],
      "name": "withdraw",
      "outputs": [],
      "stateMutability": "payable",
      "type": "function"
    }
  ],
  "bytecode": "0x6080604052661aa535d3d0c000600a553480156200001c57600080fd5b506040516200377238038062003772833981810160405281019062000042919062000274565b6040518060400160405280600c81526020017f43727970746f556e6469657300000000000000000000000000000000000000008152506040518060400160405280600281526020017f43550000000000000000000000000000000000000000000000000000000000008152508160009081620000bf919062000520565b508060019081620000d1919062000520565b505050620000f4620000e86200013c60201b60201c565b6200014460201b60201c565b80600960006101000a81548173ffffffffffffffffffffffffffffffffffffffff021916908373ffffffffffffffffffffffffffffffffffffffff1602179055505062000607565b600033905090565b6000600760009054906101000a900473ffffffffffffffffffffffffffffffffffffffff16905081600760006101000a81548173ffffffffffffffffffffffffffffffffffffffff021916908373ffffffffffffffffffffffffffffffffffffffff1602179055508173ffffffffffffffffffffffffffffffffffffffff168173ffffffffffffffffffffffffffffffffffffffff167f8be0079c531659141344cd1fd0a4f28419497f9722a3daafe3b4186f6b6457e060405160405180910390a35050565b600080fd5b600073ffffffffffffffffffffffffffffffffffffffff82169050919050565b60006200023c826200020f565b9050919050565b6200024e816200022f565b81146200025a57600080fd5b50565b6000815190506200026e8162000243565b92915050565b6000602082840312156200028d576200028c6200020a565b5b60006200029d848285016200025d565b91505092915050565b600081519050919050565b7f4e487b7100000000000000000000000000000000000000000000000000000000600052604160045260246000fd5b7f4e487b7100000000000000000000000000000000000000000000000000000000600052602260045260246000fd5b600060028204905060018216806200032857607f821691505b6020821081036200033e576200033d620002e0565b5b50919050565b60008190508160005260206000209050919050565b60006020601f8301049050919050565b600082821b905092915050565b600060088302620003a87fffffffffffffffffffffffffffffffffffffffffffffffffffffffffffffffff8262000369565b620003b4868362000369565b95508019841693508086168417925050509392505050565b6000819050919050565b6000819050919050565b600062000401620003fb620003f584620003cc565b620003d6565b620003cc565b9050919050565b6000819050919050565b6200041d83620003e0565b620004356200042c8262000408565b84845462000376565b825550505050565b600090565b6200044c6200043d565b6200045981848462000412565b505050565b5b8181101562000481576200047560008262000442565b6001810190506200045f565b5050565b601f821115620004d0576200049a8162000344565b620004a58462000359565b81016020851015620004b5578190505b620004cd620004c48562000359565b8301826200045e565b50505b505050565b600082821c905092915050565b6000620004f560001984600802620004d5565b1980831691505092915050565b6000620005108383620004e2565b9150826002028217905092915050565b6200052b82620002a6565b67ffffffffffffffff811115620005475762000546620002b1565b5b6200055382546200030f565b6200056082828562000485565b600060209050601f83116001811462000598576000841562000583578287015190505b6200058f858262000502565b865550620005ff565b601f198416620005a88662000344565b60005b82811015620005d257848901518255600182019150602085019450602081019050620005ab565b86831015620005f25784890151620005ee601f891682620004e2565b8355505b6001600288020188555050505b505050505050565b61315b80620006176000396000f3fe60806040526004361061012a5760003560e01c8063715018a6116100ab578063b88d4fde1161006f578063b88d4fde146103bf578063c87b56dd146103e8578063da2ed03e14610425578063e985e9c514610462578063f2fde38b1461049f578063fb37e883146104c85761012a565b8063715018a6146102fe5780638da5cb5b1461031557806395d89b4114610340578063a22cb4651461036b578063aa46a400146103945761012a565b806323b872dd116100f257806323b872dd146102285780633ccfd60b1461025157806342842e0e1461025b5780636352211e1461028457806370a08231146102c15761012a565b806301ffc9a71461012f57806306fdde031461016c578063081812fc14610197578063095ea7b3146101d457806313faede6146101fd575b600080fd5b34801561013b57600080fd5b5061015660048036038101906101519190611ef3565b6104f8565b6040516101639190611f3b565b60405180910390f35b34801561017857600080fd5b50610181610559565b60405161018e9190611fe6565b60405180910390f35b3480156101a357600080fd5b506101be60048036038101906101b9919061203e565b6105eb565b6040516101cb91906120ac565b60405180910390f35b3480156101e057600080fd5b506101fb60048036038101906101f691906120f3565b610631565b005b34801561020957600080fd5b50610212610748565b60405161021f9190612142565b60405180910390f35b34801561023457600080fd5b5061024f600480360381019061024a919061215d565b61074e565b005b6102596107ae565b005b34801561026757600080fd5b50610282600480360381019061027d919061215d565b6107f6565b005b34801561029057600080fd5b506102ab60048036038101906102a6919061203e565b610816565b6040516102b891906120ac565b60405180910390f35b3480156102cd57600080fd5b506102e860048036038101906102e391906121b0565b61089c565b6040516102f59190612142565b60405180910390f35b34801561030a57600080fd5b50610313610953565b005b34801561032157600080fd5b5061032a610967565b60405161033791906120ac565b60405180910390f35b34801561034c57600080fd5b50610355610991565b6040516103629190611fe6565b60405180910390f35b34801561037757600080fd5b50610392600480360381019061038d9190612209565b610a23565b005b3480156103a057600080fd5b506103a9610a39565b6040516103b69190612142565b60405180910390f35b3480156103cb57600080fd5b506103e660048036038101906103e1919061237e565b610a45565b005b3480156103f457600080fd5b5061040f600480360381019061040a919061203e565b610aa7565b60405161041c9190611fe6565b60405180910390f35b34801561043157600080fd5b5061044c600480360381019061044791906124a2565b610bb9565b6040516104599190612142565b60405180910390f35b34801561046e57600080fd5b50610489600480360381019061048491906124eb565b610c1d565b6040516104969190611f3b565b60405180910390f35b3480156104ab57600080fd5b506104c660048036038101906104c191906121b0565b610cb1565b005b6104e260048036038101906104dd91906124a2565b610d34565b6040516104ef9190612142565b60405180910390f35b6000634906490660e01b7bffffffffffffffffffffffffffffffffffffffffffffffffffffffff1916827bffffffffffffffffffffffffffffffffffffffffffffffffffffffff19161480610552575061055182610ddc565b5b9050919050565b6060600080546105689061255a565b80601f01602080910402602001604051908101604052809291908181526020018280546105949061255a565b80156105e15780601f106105b6576101008083540402835291602001916105e1565b820191906000526020600020905b8154815290600101906020018083116105c457829003601f168201915b5050505050905090565b60006105f682610ebe565b6004600083815260200190815260200160002060009054906101000a900473ffffffffffffffffffffffffffffffffffffffff169050919050565b600061063c82610816565b90508073ffffffffffffffffffffffffffffffffffffffff168373ffffffffffffffffffffffffffffffffffffffff16036106ac576040517f08c379a00000000000000000000000000000000000000000000000000000000081526004016106a3906125fd565b60405180910390fd5b8073ffffffffffffffffffffffffffffffffffffffff166106cb610f09565b73ffffffffffffffffffffffffffffffffffffffff1614806106fa57506106f9816106f4610f09565b610c1d565b5b610739576040517f08c379a00000000000000000000000000000000000000000000000000000000081526004016107309061268f565b60405180910390fd5b6107438383610f11565b505050565b600a5481565b61075f610759610f09565b82610fca565b61079e576040517f08c379a000000000000000000000000000000000000000000000000000000000815260040161079590612721565b60405180910390fd5b6107a983838361105f565b505050565b6107b6611358565b3373ffffffffffffffffffffffffffffffffffffffff166108fc479081150290604051600060405180830381858888f193505050506107f457600080fd5b565b61081183838360405180602001604052806000815250610a45565b505050565b600080610822836113d6565b9050600073ffffffffffffffffffffffffffffffffffffffff168173ffffffffffffffffffffffffffffffffffffffff1603610893576040517f08c379a000000000000000000000000000000000000000000000000000000000815260040161088a9061278d565b60405180910390fd5b80915050919050565b60008073ffffffffffffffffffffffffffffffffffffffff168273ffffffffffffffffffffffffffffffffffffffff160361090c576040517f08c379a00000000000000000000000000000000000000000000000000000000081526004016109039061281f565b60405180910390fd5b600360008373ffffffffffffffffffffffffffffffffffffffff1673ffffffffffffffffffffffffffffffffffffffff168152602001908152602001600020549050919050565b61095b611358565b6109656000611413565b565b6000600760009054906101000a900473ffffffffffffffffffffffffffffffffffffffff16905090565b6060600180546109a09061255a565b80601f01602080910402602001604051908101604052809291908181526020018280546109cc9061255a565b8015610a195780601f106109ee57610100808354040283529160200191610a19565b820191906000526020600020905b8154815290600101906020018083116109fc57829003601f168201915b5050505050905090565b610a35610a2e610f09565b83836114d9565b5050565b60088060000154905081565b610a56610a50610f09565b83610fca565b610a95576040517f08c379a0000000000000000000000000000000000000000000000000000000008152600401610a8c90612721565b60405180910390fd5b610aa184848484611645565b50505050565b6060610ab282610ebe565b6000600660008481526020019081526020016000208054610ad29061255a565b80601f0160208091040260200160405190810160405280929190818152602001828054610afe9061255a565b8015610b4b5780601f10610b2057610100808354040283529160200191610b4b565b820191906000526020600020905b815481529060010190602001808311610b2e57829003601f168201915b505050505090506000610b5c6116a1565b90506000815103610b71578192505050610bb4565b600082511115610ba6578082604051602001610b8e92919061287b565b60405160208183030381529060405292505050610bb4565b610baf846116b8565b925050505b919050565b6000610bc56008611720565b6000610bd16008611736565b9050610bdd3382611744565b610be78184611961565b610c14600960009054906101000a900473ffffffffffffffffffffffffffffffffffffffff166001610a23565b80915050919050565b6000600560008473ffffffffffffffffffffffffffffffffffffffff1673ffffffffffffffffffffffffffffffffffffffff16815260200190815260200160002060008373ffffffffffffffffffffffffffffffffffffffff1673ffffffffffffffffffffffffffffffffffffffff16815260200190815260200160002060009054906101000a900460ff16905092915050565b610cb9611358565b600073ffffffffffffffffffffffffffffffffffffffff168173ffffffffffffffffffffffffffffffffffffffff1603610d28576040517f08c379a0000000000000000000000000000000000000000000000000000000008152600401610d1f90612911565b60405180910390fd5b610d3181611413565b50565b6000600a543414610d7a576040517f08c379a0000000000000000000000000000000000000000000000000000000008152600401610d719061297d565b60405180910390fd5b610d846008611720565b6000610d906008611736565b9050610d9c3382611744565b610da68184611961565b610dd3600960009054906101000a900473ffffffffffffffffffffffffffffffffffffffff166001610a23565b80915050919050565b60007f80ac58cd000000000000000000000000000000000000000000000000000000007bffffffffffffffffffffffffffffffffffffffffffffffffffffffff1916827bffffffffffffffffffffffffffffffffffffffffffffffffffffffff19161480610ea757507f5b5e139f000000000000000000000000000000000000000000000000000000007bffffffffffffffffffffffffffffffffffffffffffffffffffffffff1916827bffffffffffffffffffffffffffffffffffffffffffffffffffffffff1916145b80610eb75750610eb682611a05565b5b9050919050565b610ec781611a6f565b610f06576040517f08c379a0000000000000000000000000000000000000000000000000000000008152600401610efd9061278d565b60405180910390fd5b50565b600033905090565b816004600083815260200190815260200160002060006101000a81548173ffffffffffffffffffffffffffffffffffffffff021916908373ffffffffffffffffffffffffffffffffffffffff160217905550808273ffffffffffffffffffffffffffffffffffffffff16610f8483610816565b73ffffffffffffffffffffffffffffffffffffffff167f8c5be1e5ebec7d5bd14f71427d1e84f3dd0314c0f7b2291e5b200ac8c7c3b92560405160405180910390a45050565b600080610fd683610816565b90508073ffffffffffffffffffffffffffffffffffffffff168473ffffffffffffffffffffffffffffffffffffffff16148061101857506110178185610c1d565b5b8061105657508373ffffffffffffffffffffffffffffffffffffffff1661103e846105eb565b73ffffffffffffffffffffffffffffffffffffffff16145b91505092915050565b8273ffffffffffffffffffffffffffffffffffffffff1661107f82610816565b73ffffffffffffffffffffffffffffffffffffffff16146110d5576040517f08c379a00000000000000000000000000000000000000000000000000000000081526004016110cc90612a0f565b60405180910390fd5b600073ffffffffffffffffffffffffffffffffffffffff168273ffffffffffffffffffffffffffffffffffffffff1603611144576040517f08c379a000000000000000000000000000000000000000000000000000000000815260040161113b90612aa1565b60405180910390fd5b6111518383836001611ab0565b8273ffffffffffffffffffffffffffffffffffffffff1661117182610816565b73ffffffffffffffffffffffffffffffffffffffff16146111c7576040517f08c379a00000000000000000000000000000000000000000000000000000000081526004016111be90612a0f565b60405180910390fd5b6004600082815260200190815260200160002060006101000a81549073ffffffffffffffffffffffffffffffffffffffff02191690556001600360008573ffffffffffffffffffffffffffffffffffffffff1673ffffffffffffffffffffffffffffffffffffffff168152602001908152602001600020600082825403925050819055506001600360008473ffffffffffffffffffffffffffffffffffffffff1673ffffffffffffffffffffffffffffffffffffffff16815260200190815260200160002060008282540192505081905550816002600083815260200190815260200160002060006101000a81548173ffffffffffffffffffffffffffffffffffffffff021916908373ffffffffffffffffffffffffffffffffffffffff160217905550808273ffffffffffffffffffffffffffffffffffffffff168473ffffffffffffffffffffffffffffffffffffffff167fddf252ad1be2c89b69c2b068fc378daa952ba7f163c4a11628f55a4df523b3ef60405160405180910390a46113538383836001611ab6565b505050565b611360610f09565b73ffffffffffffffffffffffffffffffffffffffff1661137e610967565b73ffffffffffffffffffffffffffffffffffffffff16146113d4576040517f08c379a00000000000000000000000000000000000000000000000000000000081526004016113cb90612b0d565b60405180910390fd5b565b60006002600083815260200190815260200160002060009054906101000a900473ffffffffffffffffffffffffffffffffffffffff169050919050565b6000600760009054906101000a900473ffffffffffffffffffffffffffffffffffffffff16905081600760006101000a81548173ffffffffffffffffffffffffffffffffffffffff021916908373ffffffffffffffffffffffffffffffffffffffff1602179055508173ffffffffffffffffffffffffffffffffffffffff168173ffffffffffffffffffffffffffffffffffffffff167f8be0079c531659141344cd1fd0a4f28419497f9722a3daafe3b4186f6b6457e060405160405180910390a35050565b8173ffffffffffffffffffffffffffffffffffffffff168373ffffffffffffffffffffffffffffffffffffffff1603611547576040517f08c379a000000000000000000000000000000000000000000000000000000000815260040161153e90612b79565b60405180910390fd5b80600560008573ffffffffffffffffffffffffffffffffffffffff1673ffffffffffffffffffffffffffffffffffffffff16815260200190815260200160002060008473ffffffffffffffffffffffffffffffffffffffff1673ffffffffffffffffffffffffffffffffffffffff16815260200190815260200160002060006101000a81548160ff0219169083151502179055508173ffffffffffffffffffffffffffffffffffffffff168373ffffffffffffffffffffffffffffffffffffffff167f17307eab39ab6107e8899845ad3d59bd9653f200f220920489ca2b5937696c31836040516116389190611f3b565b60405180910390a3505050565b61165084848461105f565b61165c84848484611abc565b61169b576040517f08c379a000000000000000000000000000000000000000000000000000000000815260040161169290612c0b565b60405180910390fd5b50505050565b606060405180602001604052806000815250905090565b60606116c382610ebe565b60006116cd6116a1565b905060008151116116ed5760405180602001604052806000815250611718565b806116f784611c43565b60405160200161170892919061287b565b6040516020818303038152906040525b915050919050565b6001816000016000828254019250508190555050565b600081600001549050919050565b600073ffffffffffffffffffffffffffffffffffffffff168273ffffffffffffffffffffffffffffffffffffffff16036117b3576040517f08c379a00000000000000000000000000000000000000000000000000000000081526004016117aa90612c77565b60405180910390fd5b6117bc81611a6f565b156117fc576040517f08c379a00000000000000000000000000000000000000000000000000000000081526004016117f390612ce3565b60405180910390fd5b61180a600083836001611ab0565b61181381611a6f565b15611853576040517f08c379a000000000000000000000000000000000000000000000000000000000815260040161184a90612ce3565b60405180910390fd5b6001600360008473ffffffffffffffffffffffffffffffffffffffff1673ffffffffffffffffffffffffffffffffffffffff16815260200190815260200160002060008282540192505081905550816002600083815260200190815260200160002060006101000a81548173ffffffffffffffffffffffffffffffffffffffff021916908373ffffffffffffffffffffffffffffffffffffffff160217905550808273ffffffffffffffffffffffffffffffffffffffff16600073ffffffffffffffffffffffffffffffffffffffff167fddf252ad1be2c89b69c2b068fc378daa952ba7f163c4a11628f55a4df523b3ef60405160405180910390a461195d600083836001611ab6565b5050565b61196a82611a6f565b6119a9576040517f08c379a00000000000000000000000000000000000000000000000000000000081526004016119a090612d75565b60405180910390fd5b806006600084815260200190815260200160002090816119c99190612f41565b507ff8e1a15aba9398e019f0b49df1a4fde98ee17ae345cb5f6b5e2c27f5033e8ce7826040516119f99190612142565b60405180910390a15050565b60007f01ffc9a7000000000000000000000000000000000000000000000000000000007bffffffffffffffffffffffffffffffffffffffffffffffffffffffff1916827bffffffffffffffffffffffffffffffffffffffffffffffffffffffff1916149050919050565b60008073ffffffffffffffffffffffffffffffffffffffff16611a91836113d6565b73ffffffffffffffffffffffffffffffffffffffff1614159050919050565b50505050565b50505050565b6000611add8473ffffffffffffffffffffffffffffffffffffffff16611d11565b15611c36578373ffffffffffffffffffffffffffffffffffffffff1663150b7a02611b06610f09565b8786866040518563ffffffff1660e01b8152600401611b289493929190613068565b6020604051808303816000875af1925050508015611b6457506040513d601f19601f82011682018060405250810190611b6191906130c9565b60015b611be6573d8060008114611b94576040519150601f19603f3d011682016040523d82523d6000602084013e611b99565b606091505b506000815103611bde576040517f08c379a0000000000000000000000000000000000000000000000000000000008152600401611bd590612c0b565b60405180910390fd5b805181602001fd5b63150b7a0260e01b7bffffffffffffffffffffffffffffffffffffffffffffffffffffffff1916817bffffffffffffffffffffffffffffffffffffffffffffffffffffffff191614915050611c3b565b600190505b949350505050565b606060006001611c5284611d34565b01905060008167ffffffffffffffff811115611c7157611c70612253565b5b6040519080825280601f01601f191660200182016040528015611ca35781602001600182028036833780820191505090505b509050600082602001820190505b600115611d06578080600190039150507f3031323334353637383961626364656600000000000000000000000000000000600a86061a8153600a8581611cfa57611cf96130f6565b5b04945060008503611cb1575b819350505050919050565b6000808273ffffffffffffffffffffffffffffffffffffffff163b119050919050565b600080600090507a184f03e93ff9f4daa797ed6e38ed64bf6a1f0100000000000000008310611d92577a184f03e93ff9f4daa797ed6e38ed64bf6a1f0100000000000000008381611d8857611d876130f6565b5b0492506040810190505b6d04ee2d6d415b85acef81000000008310611dcf576d04ee2d6d415b85acef81000000008381611dc557611dc46130f6565b5b0492506020810190505b662386f26fc100008310611dfe57662386f26fc100008381611df457611df36130f6565b5b0492506010810190505b6305f5e1008310611e27576305f5e1008381611e1d57611e1c6130f6565b5b0492506008810190505b6127108310611e4c576127108381611e4257611e416130f6565b5b0492506004810190505b60648310611e6f5760648381611e6557611e646130f6565b5b0492506002810190505b600a8310611e7e576001810190505b80915050919050565b6000604051905090565b600080fd5b600080fd5b60007fffffffff0000000000000000000000000000000000000000000000000000000082169050919050565b611ed081611e9b565b8114611edb57600080fd5b50565b600081359050611eed81611ec7565b92915050565b600060208284031215611f0957611f08611e91565b5b6000611f1784828501611ede565b91505092915050565b60008115159050919050565b611f3581611f20565b82525050565b6000602082019050611f506000830184611f2c565b92915050565b600081519050919050565b600082825260208201905092915050565b60005b83811015611f90578082015181840152602081019050611f75565b60008484015250505050565b6000601f19601f8301169050919050565b6000611fb882611f56565b611fc28185611f61565b9350611fd2818560208601611f72565b611fdb81611f9c565b840191505092915050565b600060208201905081810360008301526120008184611fad565b905092915050565b6000819050919050565b61201b81612008565b811461202657600080fd5b50565b60008135905061203881612012565b92915050565b60006020828403121561205457612053611e91565b5b600061206284828501612029565b91505092915050565b600073ffffffffffffffffffffffffffffffffffffffff82169050919050565b60006120968261206b565b9050919050565b6120a68161208b565b82525050565b60006020820190506120c1600083018461209d565b92915050565b6120d08161208b565b81146120db57600080fd5b50565b6000813590506120ed816120c7565b92915050565b6000806040838503121561210a57612109611e91565b5b6000612118858286016120de565b925050602061212985828601612029565b9150509250929050565b61213c81612008565b82525050565b60006020820190506121576000830184612133565b92915050565b60008060006060848603121561217657612175611e91565b5b6000612184868287016120de565b9350506020612195868287016120de565b92505060406121a686828701612029565b9150509250925092565b6000602082840312156121c6576121c5611e91565b5b60006121d4848285016120de565b91505092915050565b6121e681611f20565b81146121f157600080fd5b50565b600081359050612203816121dd565b92915050565b600080604083850312156122205761221f611e91565b5b600061222e858286016120de565b925050602061223f858286016121f4565b9150509250929050565b600080fd5b600080fd5b7f4e487b7100000000000000000000000000000000000000000000000000000000600052604160045260246000fd5b61228b82611f9c565b810181811067ffffffffffffffff821117156122aa576122a9612253565b5b80604052505050565b60006122bd611e87565b90506122c98282612282565b919050565b600067ffffffffffffffff8211156122e9576122e8612253565b5b6122f282611f9c565b9050602081019050919050565b82818337600083830152505050565b600061232161231c846122ce565b6122b3565b90508281526020810184848401111561233d5761233c61224e565b5b6123488482856122ff565b509392505050565b600082601f83011261236557612364612249565b5b813561237584826020860161230e565b91505092915050565b6000806000806080858703121561239857612397611e91565b5b60006123a6878288016120de565b94505060206123b7878288016120de565b93505060406123c887828801612029565b925050606085013567ffffffffffffffff8111156123e9576123e8611e96565b5b6123f587828801612350565b91505092959194509250565b600067ffffffffffffffff82111561241c5761241b612253565b5b61242582611f9c565b9050602081019050919050565b600061244561244084612401565b6122b3565b9050828152602081018484840111156124615761246061224e565b5b61246c8482856122ff565b509392505050565b600082601f83011261248957612488612249565b5b8135612499848260208601612432565b91505092915050565b6000602082840312156124b8576124b7611e91565b5b600082013567ffffffffffffffff8111156124d6576124d5611e96565b5b6124e284828501612474565b91505092915050565b6000806040838503121561250257612501611e91565b5b6000612510858286016120de565b9250506020612521858286016120de565b9150509250929050565b7f4e487b7100000000000000000000000000000000000000000000000000000000600052602260045260246000fd5b6000600282049050600182168061257257607f821691505b6020821081036125855761258461252b565b5b50919050565b7f4552433732313a20617070726f76616c20746f2063757272656e74206f776e6560008201527f7200000000000000000000000000000000000000000000000000000000000000602082015250565b60006125e7602183611f61565b91506125f28261258b565b604082019050919050565b60006020820190508181036000830152612616816125da565b9050919050565b7f4552433732313a20617070726f76652063616c6c6572206973206e6f7420746f60008201527f6b656e206f776e6572206f7220617070726f76656420666f7220616c6c000000602082015250565b6000612679603d83611f61565b91506126848261261d565b604082019050919050565b600060208201905081810360008301526126a88161266c565b9050919050565b7f4552433732313a2063616c6c6572206973206e6f7420746f6b656e206f776e6560008201527f72206f7220617070726f76656400000000000000000000000000000000000000602082015250565b600061270b602d83611f61565b9150612716826126af565b604082019050919050565b6000602082019050818103600083015261273a816126fe565b9050919050565b7f4552433732313a20696e76616c696420746f6b656e2049440000000000000000600082015250565b6000612777601883611f61565b915061278282612741565b602082019050919050565b600060208201905081810360008301526127a68161276a565b9050919050565b7f4552433732313a2061646472657373207a65726f206973206e6f74206120766160008201527f6c6964206f776e65720000000000000000000000000000000000000000000000602082015250565b6000612809602983611f61565b9150612814826127ad565b604082019050919050565b60006020820190508181036000830152612838816127fc565b9050919050565b600081905092915050565b600061285582611f56565b61285f818561283f565b935061286f818560208601611f72565b80840191505092915050565b6000612887828561284a565b9150612893828461284a565b91508190509392505050565b7f4f776e61626c653a206e6577206f776e657220697320746865207a65726f206160008201527f6464726573730000000000000000000000000000000000000000000000000000602082015250565b60006128fb602683611f61565b91506129068261289f565b604082019050919050565b6000602082019050818103600083015261292a816128ee565b9050919050565b7f4e65656420746f2073656e6420302e3037352065746865722100000000000000600082015250565b6000612967601983611f61565b915061297282612931565b602082019050919050565b600060208201905081810360008301526129968161295a565b9050919050565b7f4552433732313a207472616e736665722066726f6d20696e636f72726563742060008201527f6f776e6572000000000000000000000000000000000000000000000000000000602082015250565b60006129f9602583611f61565b9150612a048261299d565b604082019050919050565b60006020820190508181036000830152612a28816129ec565b9050919050565b7f4552433732313a207472616e7366657220746f20746865207a65726f2061646460008201527f7265737300000000000000000000000000000000000000000000000000000000602082015250565b6000612a8b602483611f61565b9150612a9682612a2f565b604082019050919050565b60006020820190508181036000830152612aba81612a7e565b9050919050565b7f4f776e61626c653a2063616c6c6572206973206e6f7420746865206f776e6572600082015250565b6000612af7602083611f61565b9150612b0282612ac1565b602082019050919050565b60006020820190508181036000830152612b2681612aea565b9050919050565b7f4552433732313a20617070726f766520746f2063616c6c657200000000000000600082015250565b6000612b63601983611f61565b9150612b6e82612b2d565b602082019050919050565b60006020820190508181036000830152612b9281612b56565b9050919050565b7f4552433732313a207472616e7366657220746f206e6f6e20455243373231526560008201527f63656976657220696d706c656d656e7465720000000000000000000000000000602082015250565b6000612bf5603283611f61565b9150612c0082612b99565b604082019050919050565b60006020820190508181036000830152612c2481612be8565b9050919050565b7f4552433732313a206d696e7420746f20746865207a65726f2061646472657373600082015250565b6000612c61602083611f61565b9150612c6c82612c2b565b602082019050919050565b60006020820190508181036000830152612c9081612c54565b9050919050565b7f4552433732313a20746f6b656e20616c7265616479206d696e74656400000000600082015250565b6000612ccd601c83611f61565b9150612cd882612c97565b602082019050919050565b60006020820190508181036000830152612cfc81612cc0565b9050919050565b7f45524337323155524953746f726167653a2055524920736574206f66206e6f6e60008201527f6578697374656e7420746f6b656e000000000000000000000000000000000000602082015250565b6000612d5f602e83611f61565b9150612d6a82612d03565b604082019050919050565b60006020820190508181036000830152612d8e81612d52565b9050919050565b60008190508160005260206000209050919050565b60006020601f8301049050919050565b600082821b905092915050565b600060088302612df77fffffffffffffffffffffffffffffffffffffffffffffffffffffffffffffffff82612dba565b612e018683612dba565b95508019841693508086168417925050509392505050565b6000819050919050565b6000612e3e612e39612e3484612008565b612e19565b612008565b9050919050565b6000819050919050565b612e5883612e23565b612e6c612e6482612e45565b848454612dc7565b825550505050565b600090565b612e81612e74565b612e8c818484612e4f565b505050565b5b81811015612eb057612ea5600082612e79565b600181019050612e92565b5050565b601f821115612ef557612ec681612d95565b612ecf84612daa565b81016020851015612ede578190505b612ef2612eea85612daa565b830182612e91565b50505b505050565b600082821c905092915050565b6000612f1860001984600802612efa565b1980831691505092915050565b6000612f318383612f07565b9150826002028217905092915050565b612f4a82611f56565b67ffffffffffffffff811115612f6357612f62612253565b5b612f6d825461255a565b612f78828285612eb4565b600060209050601f831160018114612fab5760008415612f99578287015190505b612fa38582612f25565b86555061300b565b601f198416612fb986612d95565b60005b82811015612fe157848901518255600182019150602085019450602081019050612fbc565b86831015612ffe5784890151612ffa601f891682612f07565b8355505b6001600288020188555050505b505050505050565b600081519050919050565b600082825260208201905092915050565b600061303a82613013565b613044818561301e565b9350613054818560208601611f72565b61305d81611f9c565b840191505092915050565b600060808201905061307d600083018761209d565b61308a602083018661209d565b6130976040830185612133565b81810360608301526130a9818461302f565b905095945050505050565b6000815190506130c381611ec7565b92915050565b6000602082840312156130df576130de611e91565b5b60006130ed848285016130b4565b91505092915050565b7f4e487b7100000000000000000000000000000000000000000000000000000000600052601260045260246000fdfea2646970667358221220651fd9a9d26c96e0c8f39be2c990819c3959fc4429fcbd085eaa322ccdceb35564736f6c63430008120033",
  "linkReferences": {},
  "deployedLinkReferences": {}
}