{
  "_format": "hh-sol-artifact-1",
  "contractName": "Market",
  "sourceName": "contracts/Market.sol",
  "abi": [
    {
      "inputs": [],
      "stateMutability": "nonpayable",
      "type": "constructor"
    },
    {
      "anonymous": false,
      "inputs": [
        {
          "indexed": true,
          "internalType": "address",
          "name": "previousOwner",
          "type": "address"
        },
        {
          "indexed": true,
          "internalType": "address",
          "name": "newOwner",
          "type": "address"
        }
      ],
      "name": "OwnershipTransferred",
      "type": "event"
    },
    {
      "anonymous": false,
      "inputs": [
        {
          "indexed": true,
          "internalType": "uint256",
          "name": "itemId",
          "type": "uint256"
        },
        {
          "indexed": true,
          "internalType": "address",
          "name": "nftContract",
          "type": "address"
        },
        {
          "indexed": true,
          "internalType": "uint256",
          "name": "tokenId",
          "type": "uint256"
        },
        {
          "indexed": false,
          "internalType": "address",
          "name": "seller",
          "type": "address"
        },
        {
          "indexed": false,
          "internalType": "address",
          "name": "holder",
          "type": "address"
        },
        {
          "indexed": false,
          "internalType": "uint256",
          "name": "price",
          "type": "uint256"
        },
        {
          "indexed": false,
          "internalType": "bool",
          "name": "sold",
          "type": "bool"
        }
      ],
      "name": "VaultItemCreated",
      "type": "event"
    },
    {
      "inputs": [
        {
          "internalType": "address",
          "name": "nftContract",
          "type": "address"
        },
        {
          "internalType": "uint256",
          "name": "itemId",
          "type": "uint256"
        }
      ],
      "name": "MarketSale",
      "outputs": [],
      "stateMutability": "payable",
      "type": "function"
    },
    {
      "inputs": [
        {
          "internalType": "address",
          "name": "nftContract",
          "type": "address"
        },
        {
          "internalType": "uint256",
          "name": "tokenId",
          "type": "uint256"
        },
        {
          "internalType": "uint256",
          "name": "price",
          "type": "uint256"
        }
      ],
      "name": "createVaultItem",
      "outputs": [],
      "stateMutability": "payable",
      "type": "function"
    },
    {
      "inputs": [],
      "name": "getAvailableNft",
      "outputs": [
        {
          "components": [
            {
              "internalType": "uint256",
              "name": "itemId",
              "type": "uint256"
            },
            {
              "internalType": "address",
              "name": "nftContract",
              "type": "address"
            },
            {
              "internalType": "uint256",
              "name": "tokenId",
              "type": "uint256"
            },
            {
              "internalType": "address payable",
              "name": "seller",
              "type": "address"
            },
            {
              "internalType": "address payable",
              "name": "holder",
              "type": "address"
            },
            {
              "internalType": "uint256",
              "name": "price",
              "type": "uint256"
            },
            {
              "internalType": "bool",
              "name": "sold",
              "type": "bool"
            }
          ],
          "internalType": "struct Market.VaultItem[]",
          "name": "",
          "type": "tuple[]"
        }
      ],
      "stateMutability": "view",
      "type": "function"
    },
    {
      "inputs": [],
      "name": "getListingFee",
      "outputs": [
        {
          "internalType": "uint256",
          "name": "",
          "type": "uint256"
        }
      ],
      "stateMutability": "view",
      "type": "function"
    },
    {
      "inputs": [],
      "name": "getMyMarketNfts",
      "outputs": [
        {
          "components": [
            {
              "internalType": "uint256",
              "name": "itemId",
              "type": "uint256"
            },
            {
              "internalType": "address",
              "name": "nftContract",
              "type": "address"
            },
            {
              "internalType": "uint256",
              "name": "tokenId",
              "type": "uint256"
            },
            {
              "internalType": "address payable",
              "name": "seller",
              "type": "address"
            },
            {
              "internalType": "address payable",
              "name": "holder",
              "type": "address"
            },
            {
              "internalType": "uint256",
              "name": "price",
              "type": "uint256"
            },
            {
              "internalType": "bool",
              "name": "sold",
              "type": "bool"
            }
          ],
          "internalType": "struct Market.VaultItem[]",
          "name": "",
          "type": "tuple[]"
        }
      ],
      "stateMutability": "view",
      "type": "function"
    },
    {
      "inputs": [],
      "name": "getMyNft",
      "outputs": [
        {
          "components": [
            {
              "internalType": "uint256",
              "name": "itemId",
              "type": "uint256"
            },
            {
              "internalType": "address",
              "name": "nftContract",
              "type": "address"
            },
            {
              "internalType": "uint256",
              "name": "tokenId",
              "type": "uint256"
            },
            {
              "internalType": "address payable",
              "name": "seller",
              "type": "address"
            },
            {
              "internalType": "address payable",
              "name": "holder",
              "type": "address"
            },
            {
              "internalType": "uint256",
              "name": "price",
              "type": "uint256"
            },
            {
              "internalType": "bool",
              "name": "sold",
              "type": "bool"
            }
          ],
          "internalType": "struct Market.VaultItem[]",
          "name": "",
          "type": "tuple[]"
        }
      ],
      "stateMutability": "view",
      "type": "function"
    },
    {
      "inputs": [],
      "name": "owner",
      "outputs": [
        {
          "internalType": "address",
          "name": "",
          "type": "address"
        }
      ],
      "stateMutability": "view",
      "type": "function"
    },
    {
      "inputs": [],
      "name": "renounceOwnership",
      "outputs": [],
      "stateMutability": "nonpayable",
      "type": "function"
    },
    {
      "inputs": [
        {
          "internalType": "address",
          "name": "newOwner",
          "type": "address"
        }
      ],
      "name": "transferOwnership",
      "outputs": [],
      "stateMutability": "nonpayable",
      "type": "function"
    },
    {
      "inputs": [],
      "name": "withdraw",
      "outputs": [],
      "stateMutability": "payable",
      "type": "function"
    }
  ],
  "bytecode": "0x60806040526608e1bc9bf04000600555661aa535d3d0c00060065534801561002657600080fd5b50600160008190555061004b61004061009160201b60201c565b61009960201b60201c565b33600460006101000a81548173ffffffffffffffffffffffffffffffffffffffff021916908373ffffffffffffffffffffffffffffffffffffffff16021790555061015f565b600033905090565b6000600160009054906101000a900473ffffffffffffffffffffffffffffffffffffffff16905081600160006101000a81548173ffffffffffffffffffffffffffffffffffffffff021916908373ffffffffffffffffffffffffffffffffffffffff1602179055508173ffffffffffffffffffffffffffffffffffffffff168173ffffffffffffffffffffffffffffffffffffffff167f8be0079c531659141344cd1fd0a4f28419497f9722a3daafe3b4186f6b6457e060405160405180910390a35050565b611c878061016e6000396000f3fe6080604052600436106100915760003560e01c80639fd01cd1116100595780639fd01cd114610129578063a706ac2114610154578063b8fe6abe14610170578063d438b9861461019b578063f2fde38b146101c657610091565b80633ccfd60b146100965780635fec2222146100a05780636f2e30c0146100bc578063715018a6146100e75780638da5cb5b146100fe575b600080fd5b61009e6101ef565b005b6100ba60048036038101906100b591906114d7565b610237565b005b3480156100c857600080fd5b506100d16104aa565b6040516100de91906116ae565b60405180910390f35b3480156100f357600080fd5b506100fc6107f6565b005b34801561010a57600080fd5b5061011361080a565b60405161012091906116df565b60405180910390f35b34801561013557600080fd5b5061013e610834565b60405161014b91906116ae565b60405180910390f35b61016e600480360381019061016991906116fa565b610b80565b005b34801561017c57600080fd5b50610185610e9e565b604051610192919061175c565b60405180910390f35b3480156101a757600080fd5b506101b0610ea8565b6040516101bd91906116ae565b60405180910390f35b3480156101d257600080fd5b506101ed60048036038101906101e89190611777565b611171565b005b6101f76111f4565b3373ffffffffffffffffffffffffffffffffffffffff166108fc479081150290604051600060405180830381858888f1935050505061023557600080fd5b565b61023f611272565b6000600760008381526020019081526020016000206005015490506000600760008481526020019081526020016000206002015490508134146102b7576040517f08c379a00000000000000000000000000000000000000000000000000000000081526004016102ae90611827565b60405180910390fd5b6007600084815260200190815260200160002060030160009054906101000a900473ffffffffffffffffffffffffffffffffffffffff1673ffffffffffffffffffffffffffffffffffffffff166108fc349081150290604051600060405180830381858888f19350505050158015610333573d6000803e3d6000fd5b508373ffffffffffffffffffffffffffffffffffffffff166323b872dd3033846040518463ffffffff1660e01b815260040161037193929190611847565b600060405180830381600087803b15801561038b57600080fd5b505af115801561039f573d6000803e3d6000fd5b50505050336007600085815260200190815260200160002060040160006101000a81548173ffffffffffffffffffffffffffffffffffffffff021916908373ffffffffffffffffffffffffffffffffffffffff16021790555060016007600085815260200190815260200160002060060160006101000a81548160ff02191690831515021790555061043160036112c1565b600460009054906101000a900473ffffffffffffffffffffffffffffffffffffffff1673ffffffffffffffffffffffffffffffffffffffff166108fc6005549081150290604051600060405180830381858888f1935050505015801561049b573d6000803e3d6000fd5b5050506104a66112d7565b5050565b606060006104b860026112e1565b905060008060005b83811015610560573373ffffffffffffffffffffffffffffffffffffffff16600760006001846104f091906118ad565b815260200190815260200160002060040160009054906101000a900473ffffffffffffffffffffffffffffffffffffffff1673ffffffffffffffffffffffffffffffffffffffff160361054d5760018361054a91906118ad565b92505b8080610558906118e1565b9150506104c0565b5060008267ffffffffffffffff81111561057d5761057c611929565b5b6040519080825280602002602001820160405280156105b657816020015b6105a36113bd565b81526020019060019003908161059b5790505b50905060005b848110156107eb573373ffffffffffffffffffffffffffffffffffffffff16600760006001846105ec91906118ad565b815260200190815260200160002060040160009054906101000a900473ffffffffffffffffffffffffffffffffffffffff1673ffffffffffffffffffffffffffffffffffffffff16036107d857600060018261064891906118ad565b90506000600760008381526020019081526020016000209050806040518060e0016040529081600082015481526020016001820160009054906101000a900473ffffffffffffffffffffffffffffffffffffffff1673ffffffffffffffffffffffffffffffffffffffff1673ffffffffffffffffffffffffffffffffffffffff168152602001600282015481526020016003820160009054906101000a900473ffffffffffffffffffffffffffffffffffffffff1673ffffffffffffffffffffffffffffffffffffffff1673ffffffffffffffffffffffffffffffffffffffff1681526020016004820160009054906101000a900473ffffffffffffffffffffffffffffffffffffffff1673ffffffffffffffffffffffffffffffffffffffff1673ffffffffffffffffffffffffffffffffffffffff168152602001600582015481526020016006820160009054906101000a900460ff1615151515815250508486815181106107bb576107ba611958565b5b60200260200101819052506001856107d391906118ad565b945050505b80806107e3906118e1565b9150506105bc565b508094505050505090565b6107fe6111f4565b61080860006112ef565b565b6000600160009054906101000a900473ffffffffffffffffffffffffffffffffffffffff16905090565b6060600061084260026112e1565b905060008060005b838110156108ea573373ffffffffffffffffffffffffffffffffffffffff166007600060018461087a91906118ad565b815260200190815260200160002060030160009054906101000a900473ffffffffffffffffffffffffffffffffffffffff1673ffffffffffffffffffffffffffffffffffffffff16036108d7576001836108d491906118ad565b92505b80806108e2906118e1565b91505061084a565b5060008267ffffffffffffffff81111561090757610906611929565b5b60405190808252806020026020018201604052801561094057816020015b61092d6113bd565b8152602001906001900390816109255790505b50905060005b84811015610b75573373ffffffffffffffffffffffffffffffffffffffff166007600060018461097691906118ad565b815260200190815260200160002060030160009054906101000a900473ffffffffffffffffffffffffffffffffffffffff1673ffffffffffffffffffffffffffffffffffffffff1603610b625760006001826109d291906118ad565b90506000600760008381526020019081526020016000209050806040518060e0016040529081600082015481526020016001820160009054906101000a900473ffffffffffffffffffffffffffffffffffffffff1673ffffffffffffffffffffffffffffffffffffffff1673ffffffffffffffffffffffffffffffffffffffff168152602001600282015481526020016003820160009054906101000a900473ffffffffffffffffffffffffffffffffffffffff1673ffffffffffffffffffffffffffffffffffffffff1673ffffffffffffffffffffffffffffffffffffffff1681526020016004820160009054906101000a900473ffffffffffffffffffffffffffffffffffffffff1673ffffffffffffffffffffffffffffffffffffffff1673ffffffffffffffffffffffffffffffffffffffff168152602001600582015481526020016006820160009054906101000a900460ff161515151581525050848681518110610b4557610b44611958565b5b6020026020010181905250600185610b5d91906118ad565b945050505b8080610b6d906118e1565b915050610946565b508094505050505090565b610b88611272565b60008111610bcb576040517f08c379a0000000000000000000000000000000000000000000000000000000008152600401610bc2906119d3565b60405180910390fd5b6005543414610c0f576040517f08c379a0000000000000000000000000000000000000000000000000000000008152600401610c0690611a3f565b60405180910390fd5b610c1960026112c1565b6000610c2560026112e1565b90506040518060e001604052808281526020018573ffffffffffffffffffffffffffffffffffffffff1681526020018481526020013373ffffffffffffffffffffffffffffffffffffffff168152602001600073ffffffffffffffffffffffffffffffffffffffff16815260200183815260200160001515815250600760008381526020019081526020016000206000820151816000015560208201518160010160006101000a81548173ffffffffffffffffffffffffffffffffffffffff021916908373ffffffffffffffffffffffffffffffffffffffff1602179055506040820151816002015560608201518160030160006101000a81548173ffffffffffffffffffffffffffffffffffffffff021916908373ffffffffffffffffffffffffffffffffffffffff16021790555060808201518160040160006101000a81548173ffffffffffffffffffffffffffffffffffffffff021916908373ffffffffffffffffffffffffffffffffffffffff16021790555060a0820151816005015560c08201518160060160006101000a81548160ff0219169083151502179055509050508373ffffffffffffffffffffffffffffffffffffffff166323b872dd3330866040518463ffffffff1660e01b8152600401610e0693929190611847565b600060405180830381600087803b158015610e2057600080fd5b505af1158015610e34573d6000803e3d6000fd5b50505050828473ffffffffffffffffffffffffffffffffffffffff16827f5f244be10a8d938e3d87696f8eb660aea498791b881de4ccb1838ba753270f18336000876000604051610e889493929190611a6e565b60405180910390a450610e996112d7565b505050565b6000600554905090565b60606000610eb660026112e1565b90506000610ec460036112e1565b610ece60026112e1565b610ed89190611ab3565b90506000808267ffffffffffffffff811115610ef757610ef6611929565b5b604051908082528060200260200182016040528015610f3057816020015b610f1d6113bd565b815260200190600190039081610f155790505b50905060005b8481101561116657600073ffffffffffffffffffffffffffffffffffffffff1660076000600184610f6791906118ad565b815260200190815260200160002060040160009054906101000a900473ffffffffffffffffffffffffffffffffffffffff1673ffffffffffffffffffffffffffffffffffffffff1603611153576000600182610fc391906118ad565b90506000600760008381526020019081526020016000209050806040518060e0016040529081600082015481526020016001820160009054906101000a900473ffffffffffffffffffffffffffffffffffffffff1673ffffffffffffffffffffffffffffffffffffffff1673ffffffffffffffffffffffffffffffffffffffff168152602001600282015481526020016003820160009054906101000a900473ffffffffffffffffffffffffffffffffffffffff1673ffffffffffffffffffffffffffffffffffffffff1673ffffffffffffffffffffffffffffffffffffffff1681526020016004820160009054906101000a900473ffffffffffffffffffffffffffffffffffffffff1673ffffffffffffffffffffffffffffffffffffffff1673ffffffffffffffffffffffffffffffffffffffff168152602001600582015481526020016006820160009054906101000a900460ff16151515158152505084868151811061113657611135611958565b5b602002602001018190525060018561114e91906118ad565b945050505b808061115e906118e1565b915050610f36565b508094505050505090565b6111796111f4565b600073ffffffffffffffffffffffffffffffffffffffff168173ffffffffffffffffffffffffffffffffffffffff16036111e8576040517f08c379a00000000000000000000000000000000000000000000000000000000081526004016111df90611b59565b60405180910390fd5b6111f1816112ef565b50565b6111fc6113b5565b73ffffffffffffffffffffffffffffffffffffffff1661121a61080a565b73ffffffffffffffffffffffffffffffffffffffff1614611270576040517f08c379a000000000000000000000000000000000000000000000000000000000815260040161126790611bc5565b60405180910390fd5b565b6002600054036112b7576040517f08c379a00000000000000000000000000000000000000000000000000000000081526004016112ae90611c31565b60405180910390fd5b6002600081905550565b6001816000016000828254019250508190555050565b6001600081905550565b600081600001549050919050565b6000600160009054906101000a900473ffffffffffffffffffffffffffffffffffffffff16905081600160006101000a81548173ffffffffffffffffffffffffffffffffffffffff021916908373ffffffffffffffffffffffffffffffffffffffff1602179055508173ffffffffffffffffffffffffffffffffffffffff168173ffffffffffffffffffffffffffffffffffffffff167f8be0079c531659141344cd1fd0a4f28419497f9722a3daafe3b4186f6b6457e060405160405180910390a35050565b600033905090565b6040518060e0016040528060008152602001600073ffffffffffffffffffffffffffffffffffffffff16815260200160008152602001600073ffffffffffffffffffffffffffffffffffffffff168152602001600073ffffffffffffffffffffffffffffffffffffffff168152602001600081526020016000151581525090565b600080fd5b600073ffffffffffffffffffffffffffffffffffffffff82169050919050565b600061146e82611443565b9050919050565b61147e81611463565b811461148957600080fd5b50565b60008135905061149b81611475565b92915050565b6000819050919050565b6114b4816114a1565b81146114bf57600080fd5b50565b6000813590506114d1816114ab565b92915050565b600080604083850312156114ee576114ed61143e565b5b60006114fc8582860161148c565b925050602061150d858286016114c2565b9150509250929050565b600081519050919050565b600082825260208201905092915050565b6000819050602082019050919050565b61154c816114a1565b82525050565b61155b81611463565b82525050565b600061156c82611443565b9050919050565b61157c81611561565b82525050565b60008115159050919050565b61159781611582565b82525050565b60e0820160008201516115b36000850182611543565b5060208201516115c66020850182611552565b5060408201516115d96040850182611543565b5060608201516115ec6060850182611573565b5060808201516115ff6080850182611573565b5060a082015161161260a0850182611543565b5060c082015161162560c085018261158e565b50505050565b6000611637838361159d565b60e08301905092915050565b6000602082019050919050565b600061165b82611517565b6116658185611522565b935061167083611533565b8060005b838110156116a1578151611688888261162b565b975061169383611643565b925050600181019050611674565b5085935050505092915050565b600060208201905081810360008301526116c88184611650565b905092915050565b6116d981611463565b82525050565b60006020820190506116f460008301846116d0565b92915050565b6000806000606084860312156117135761171261143e565b5b60006117218682870161148c565b9350506020611732868287016114c2565b9250506040611743868287016114c2565b9150509250925092565b611756816114a1565b82525050565b6000602082019050611771600083018461174d565b92915050565b60006020828403121561178d5761178c61143e565b5b600061179b8482850161148c565b91505092915050565b600082825260208201905092915050565b7f4e6f7420656e6f7567682062616c616e636520746f20636f6d706c657465207460008201527f72616e73616374696f6e00000000000000000000000000000000000000000000602082015250565b6000611811602a836117a4565b915061181c826117b5565b604082019050919050565b6000602082019050818103600083015261184081611804565b9050919050565b600060608201905061185c60008301866116d0565b61186960208301856116d0565b611876604083018461174d565b949350505050565b7f4e487b7100000000000000000000000000000000000000000000000000000000600052601160045260246000fd5b60006118b8826114a1565b91506118c3836114a1565b92508282019050808211156118db576118da61187e565b5b92915050565b60006118ec826114a1565b91507fffffffffffffffffffffffffffffffffffffffffffffffffffffffffffffffff820361191e5761191d61187e565b5b600182019050919050565b7f4e487b7100000000000000000000000000000000000000000000000000000000600052604160045260246000fd5b7f4e487b7100000000000000000000000000000000000000000000000000000000600052603260045260246000fd5b7f50726963652063616e6e6f74206265207a65726f000000000000000000000000600082015250565b60006119bd6014836117a4565b91506119c882611987565b602082019050919050565b600060208201905081810360008301526119ec816119b0565b9050919050565b7f50726963652063616e6e6f74206265206c697374696e67206665650000000000600082015250565b6000611a29601b836117a4565b9150611a34826119f3565b602082019050919050565b60006020820190508181036000830152611a5881611a1c565b9050919050565b611a6881611582565b82525050565b6000608082019050611a8360008301876116d0565b611a9060208301866116d0565b611a9d604083018561174d565b611aaa6060830184611a5f565b95945050505050565b6000611abe826114a1565b9150611ac9836114a1565b9250828203905081811115611ae157611ae061187e565b5b92915050565b7f4f776e61626c653a206e6577206f776e657220697320746865207a65726f206160008201527f6464726573730000000000000000000000000000000000000000000000000000602082015250565b6000611b436026836117a4565b9150611b4e82611ae7565b604082019050919050565b60006020820190508181036000830152611b7281611b36565b9050919050565b7f4f776e61626c653a2063616c6c6572206973206e6f7420746865206f776e6572600082015250565b6000611baf6020836117a4565b9150611bba82611b79565b602082019050919050565b60006020820190508181036000830152611bde81611ba2565b9050919050565b7f5265656e7472616e637947756172643a207265656e7472616e742063616c6c00600082015250565b6000611c1b601f836117a4565b9150611c2682611be5565b602082019050919050565b60006020820190508181036000830152611c4a81611c0e565b905091905056fea2646970667358221220dfa6b41461139d4438db623761a97693041400879209328718513b9956dd250c64736f6c63430008120033",
  "linkReferences": {},
  "deployedLinkReferences": {}
}